{
  "_format": "hh-sol-artifact-1",
  "contractName": "Marketplace",
  "sourceName": "src/contract/contracts/Marketplace.sol",
  "abi": [
    {
      "inputs": [
        {
          "internalType": "uint256",
          "name": "_feePercent",
          "type": "uint256"
        }
      ],
      "stateMutability": "nonpayable",
      "type": "constructor"
    },
    {
      "anonymous": false,
      "inputs": [
        {
          "indexed": false,
          "internalType": "uint256",
          "name": "itemId",
          "type": "uint256"
        },
        {
          "indexed": true,
          "internalType": "address",
          "name": "nft",
          "type": "address"
        },
        {
          "indexed": false,
          "internalType": "uint256",
          "name": "tokenId",
          "type": "uint256"
        },
        {
          "indexed": false,
          "internalType": "uint256",
          "name": "price",
          "type": "uint256"
        },
        {
          "indexed": true,
          "internalType": "address",
          "name": "seller",
          "type": "address"
        },
        {
          "indexed": true,
          "internalType": "address",
          "name": "buyer",
          "type": "address"
        }
      ],
      "name": "BuyItem",
      "type": "event"
    },
    {
      "anonymous": false,
      "inputs": [
        {
          "indexed": false,
          "internalType": "uint256",
          "name": "itemId",
          "type": "uint256"
        },
        {
          "indexed": true,
          "internalType": "address",
          "name": "nft",
          "type": "address"
        },
        {
          "indexed": false,
          "internalType": "uint256",
          "name": "tokenId",
          "type": "uint256"
        },
        {
          "indexed": true,
          "internalType": "address",
          "name": "owner",
          "type": "address"
        }
      ],
      "name": "CancelItem",
      "type": "event"
    },
    {
      "anonymous": false,
      "inputs": [
        {
          "indexed": true,
          "internalType": "address",
          "name": "nft",
          "type": "address"
        },
        {
          "indexed": true,
          "internalType": "address",
          "name": "from",
          "type": "address"
        },
        {
          "indexed": true,
          "internalType": "address",
          "name": "to",
          "type": "address"
        },
        {
          "indexed": false,
          "internalType": "uint256",
          "name": "tokenId",
          "type": "uint256"
        }
      ],
      "name": "GiftNFT",
      "type": "event"
    },
    {
      "anonymous": false,
      "inputs": [
        {
          "indexed": false,
          "internalType": "uint256",
          "name": "itemId",
          "type": "uint256"
        },
        {
          "indexed": true,
          "internalType": "address",
          "name": "nft",
          "type": "address"
        },
        {
          "indexed": false,
          "internalType": "uint256",
          "name": "tokenId",
          "type": "uint256"
        },
        {
          "indexed": false,
          "internalType": "uint256",
          "name": "price",
          "type": "uint256"
        },
        {
          "indexed": true,
          "internalType": "address",
          "name": "seller",
          "type": "address"
        }
      ],
      "name": "MakeItem",
      "type": "event"
    },
    {
      "inputs": [
        {
          "internalType": "uint256",
          "name": "itemId",
          "type": "uint256"
        }
      ],
      "name": "cancelItem",
      "outputs": [],
      "stateMutability": "nonpayable",
      "type": "function"
    },
    {
      "inputs": [],
      "name": "feeAccount",
      "outputs": [
        {
          "internalType": "address payable",
          "name": "",
          "type": "address"
        }
      ],
      "stateMutability": "view",
      "type": "function"
    },
    {
      "inputs": [],
      "name": "feePercent",
      "outputs": [
        {
          "internalType": "uint256",
          "name": "",
          "type": "uint256"
        }
      ],
      "stateMutability": "view",
      "type": "function"
    },
    {
      "inputs": [
        {
          "internalType": "address",
          "name": "owner",
          "type": "address"
        }
      ],
      "name": "getAllNFTOwned",
      "outputs": [
        {
          "internalType": "uint256[]",
          "name": "",
          "type": "uint256[]"
        }
      ],
      "stateMutability": "view",
      "type": "function"
    },
    {
      "inputs": [
        {
          "internalType": "uint256",
          "name": "_itemId",
          "type": "uint256"
        }
      ],
      "name": "getTotalPrice",
      "outputs": [
        {
          "internalType": "uint256",
          "name": "",
          "type": "uint256"
        }
      ],
      "stateMutability": "view",
      "type": "function"
    },
    {
      "inputs": [
        {
          "internalType": "address",
          "name": "nft",
          "type": "address"
        },
        {
          "internalType": "address",
          "name": "to",
          "type": "address"
        },
        {
          "internalType": "uint256",
          "name": "tokenId",
          "type": "uint256"
        }
      ],
      "name": "giftNFT",
      "outputs": [],
      "stateMutability": "nonpayable",
      "type": "function"
    },
    {
      "inputs": [],
      "name": "itemCount",
      "outputs": [
        {
          "internalType": "uint256",
          "name": "",
          "type": "uint256"
        }
      ],
      "stateMutability": "view",
      "type": "function"
    },
    {
      "inputs": [
        {
          "internalType": "uint256",
          "name": "",
          "type": "uint256"
        }
      ],
      "name": "itemIdToItem",
      "outputs": [
        {
          "internalType": "uint256",
          "name": "itemId",
          "type": "uint256"
        },
        {
          "internalType": "contract IERC721",
          "name": "nft",
          "type": "address"
        },
        {
          "internalType": "uint256",
          "name": "tokenId",
          "type": "uint256"
        },
        {
          "internalType": "uint256",
          "name": "price",
          "type": "uint256"
        },
        {
          "internalType": "address payable",
          "name": "seller",
          "type": "address"
        },
        {
          "internalType": "bool",
          "name": "onSale",
          "type": "bool"
        }
      ],
      "stateMutability": "view",
      "type": "function"
    },
    {
      "inputs": [
        {
          "internalType": "contract IERC721",
          "name": "_nft",
          "type": "address"
        },
        {
          "internalType": "uint256",
          "name": "_tokenId",
          "type": "uint256"
        },
        {
          "internalType": "uint256",
          "name": "_price",
          "type": "uint256"
        }
      ],
      "name": "makeItem",
      "outputs": [],
      "stateMutability": "nonpayable",
      "type": "function"
    },
    {
      "inputs": [
        {
          "internalType": "uint256",
          "name": "_itemId",
          "type": "uint256"
        }
      ],
      "name": "purchaseItem",
      "outputs": [],
      "stateMutability": "payable",
      "type": "function"
    },
    {
      "inputs": [
        {
          "internalType": "uint256",
          "name": "",
          "type": "uint256"
        }
      ],
      "name": "tokenIdToItemId",
      "outputs": [
        {
          "internalType": "uint256",
          "name": "",
          "type": "uint256"
        }
      ],
      "stateMutability": "view",
      "type": "function"
    }
  ],
  "bytecode": "0x60c06040523480156200001157600080fd5b5060405162001d4338038062001d4383398181016040528101906200003791906200009c565b60016000819055503373ffffffffffffffffffffffffffffffffffffffff1660808173ffffffffffffffffffffffffffffffffffffffff1660601b815250508060a0818152505050620000ec565b6000815190506200009681620000d2565b92915050565b600060208284031215620000af57600080fd5b6000620000bf8482850162000085565b91505092915050565b6000819050919050565b620000dd81620000c8565b8114620000e957600080fd5b50565b60805160601c60a051611c196200012a60003960008181610588015281816106a0015261085101526000818161055e015261093b0152611c196000f3fe60806040526004361061009c5760003560e01c8063b85c3d6611610064578063b85c3d6614610188578063ca7dd375146101b1578063d38ea5bf146101ee578063d3dd52531461020a578063d495e2201461024c578063fa00afc7146102895761009c565b806337f4be6b146100a157806351563f8e146100de57806365e17c9d146101075780636bfb0d01146101325780637fd6f15c1461015d575b600080fd5b3480156100ad57600080fd5b506100c860048036038101906100c39190611437565b6102b2565b6040516100d59190611736565b60405180910390f35b3480156100ea57600080fd5b5061010560048036038101906101009190611437565b6102ca565b005b34801561011357600080fd5b5061011c61055c565b6040516101299190611602565b60405180910390f35b34801561013e57600080fd5b50610147610580565b6040516101549190611736565b60405180910390f35b34801561016957600080fd5b50610172610586565b60405161017f9190611736565b60405180910390f35b34801561019457600080fd5b506101af60048036038101906101aa9190611399565b6105aa565b005b3480156101bd57600080fd5b506101d860048036038101906101d39190611437565b61069a565b6040516101e59190611736565b60405180910390f35b61020860048036038101906102039190611437565b6106fd565b005b34801561021657600080fd5b50610231600480360381019061022c9190611437565b610b15565b60405161024396959493929190611751565b60405180910390f35b34801561025857600080fd5b50610273600480360381019061026e9190611370565b610b9e565b6040516102809190611654565b60405180910390f35b34801561029557600080fd5b506102b060048036038101906102ab91906113e8565b610e04565b005b60036020528060005260406000206000915090505481565b6000600260008381526020019081526020016000206040518060c0016040529081600082015481526020016001820160009054906101000a900473ffffffffffffffffffffffffffffffffffffffff1673ffffffffffffffffffffffffffffffffffffffff1673ffffffffffffffffffffffffffffffffffffffff16815260200160028201548152602001600382015481526020016004820160009054906101000a900473ffffffffffffffffffffffffffffffffffffffff1673ffffffffffffffffffffffffffffffffffffffff1673ffffffffffffffffffffffffffffffffffffffff1681526020016004820160149054906101000a900460ff1615151515815250509050806080015173ffffffffffffffffffffffffffffffffffffffff163373ffffffffffffffffffffffffffffffffffffffff1614610443576040517f08c379a000000000000000000000000000000000000000000000000000000000815260040161043a906116f6565b60405180910390fd5b60006002600084815260200190815260200160002060040160146101000a81548160ff021916908315150217905550806020015173ffffffffffffffffffffffffffffffffffffffff166323b872dd303384604001516040518463ffffffff1660e01b81526004016104b79392919061161d565b600060405180830381600087803b1580156104d157600080fd5b505af11580156104e5573d6000803e3d6000fd5b505050503373ffffffffffffffffffffffffffffffffffffffff16816020015173ffffffffffffffffffffffffffffffffffffffff167f1d44fa34d041f56afc95cb3e04f3accb840b59592693aa17bcb400ca668bfefa8484604001516040516105509291906117b2565b60405180910390a35050565b7f000000000000000000000000000000000000000000000000000000000000000081565b60015481565b7f000000000000000000000000000000000000000000000000000000000000000081565b8273ffffffffffffffffffffffffffffffffffffffff166323b872dd3384846040518463ffffffff1660e01b81526004016105e79392919061161d565b600060405180830381600087803b15801561060157600080fd5b505af1158015610615573d6000803e3d6000fd5b505050508173ffffffffffffffffffffffffffffffffffffffff163373ffffffffffffffffffffffffffffffffffffffff168473ffffffffffffffffffffffffffffffffffffffff167fecf926213846e608102dc94bdbb335b3211d72c70f75c8e254c6ec69671b20418460405161068d9190611736565b60405180910390a4505050565b600060647f000000000000000000000000000000000000000000000000000000000000000060646106cb919061185c565b60026000858152602001908152602001600020600301546106ec91906118e3565b6106f691906118b2565b9050919050565b60026000541415610743576040517f08c379a000000000000000000000000000000000000000000000000000000000815260040161073a90611716565b60405180910390fd5b6002600081905550600060026000838152602001908152602001600020905060008211801561077457506001548211155b6107b3576040517f08c379a00000000000000000000000000000000000000000000000000000000081526004016107aa906116d6565b60405180910390fd5b80600301543410156107fa576040517f08c379a00000000000000000000000000000000000000000000000000000000081526004016107f1906116b6565b60405180910390fd5b8060040160149054906101000a900460ff1661084b576040517f08c379a000000000000000000000000000000000000000000000000000000000815260040161084290611676565b60405180910390fd5b600060647f0000000000000000000000000000000000000000000000000000000000000000836003015461087f91906118e3565b61088991906118b2565b9050600081836003015461089d919061193d565b905060006002600086815260200190815260200160002060040160146101000a81548160ff0219169083151502179055508260040160009054906101000a900473ffffffffffffffffffffffffffffffffffffffff1673ffffffffffffffffffffffffffffffffffffffff166108fc829081150290604051600060405180830381858888f19350505050158015610938573d6000803e3d6000fd5b507f000000000000000000000000000000000000000000000000000000000000000073ffffffffffffffffffffffffffffffffffffffff166108fc839081150290604051600060405180830381858888f1935050505015801561099f573d6000803e3d6000fd5b508260010160009054906101000a900473ffffffffffffffffffffffffffffffffffffffff1673ffffffffffffffffffffffffffffffffffffffff166323b872dd303386600201546040518463ffffffff1660e01b8152600401610a059392919061161d565b600060405180830381600087803b158015610a1f57600080fd5b505af1158015610a33573d6000803e3d6000fd5b505050503373ffffffffffffffffffffffffffffffffffffffff168360040160009054906101000a900473ffffffffffffffffffffffffffffffffffffffff1673ffffffffffffffffffffffffffffffffffffffff168460010160009054906101000a900473ffffffffffffffffffffffffffffffffffffffff1673ffffffffffffffffffffffffffffffffffffffff167f0d008384de33668d0d2ac3862b42f7882efb541e2821d3d0c2e5e641328657578787600201548860030154604051610aff939291906117db565b60405180910390a4505050600160008190555050565b60026020528060005260406000206000915090508060000154908060010160009054906101000a900473ffffffffffffffffffffffffffffffffffffffff16908060020154908060030154908060040160009054906101000a900473ffffffffffffffffffffffffffffffffffffffff16908060040160149054906101000a900460ff16905086565b60606000610bab8361113d565b905060008167ffffffffffffffff811115610bef577f4e487b7100000000000000000000000000000000000000000000000000000000600052604160045260246000fd5b604051908082528060200260200182016040528015610c1d5781602001602082028036833780820191505090505b509050600080600190505b6001548111610df8576000600260008381526020019081526020016000206040518060c0016040529081600082015481526020016001820160009054906101000a900473ffffffffffffffffffffffffffffffffffffffff1673ffffffffffffffffffffffffffffffffffffffff1673ffffffffffffffffffffffffffffffffffffffff16815260200160028201548152602001600382015481526020016004820160009054906101000a900473ffffffffffffffffffffffffffffffffffffffff1673ffffffffffffffffffffffffffffffffffffffff1673ffffffffffffffffffffffffffffffffffffffff1681526020016004820160149054906101000a900460ff16151515158152505090508673ffffffffffffffffffffffffffffffffffffffff16816080015173ffffffffffffffffffffffffffffffffffffffff16148015610d7857508060a001515b15610dd6578060400151848481518110610dbb577f4e487b7100000000000000000000000000000000000000000000000000000000600052603260045260246000fd5b6020026020010181815250508280610dd290611a01565b9350505b82851415610de45750610df8565b508080610df090611a01565b915050610c28565b50819350505050919050565b60026000541415610e4a576040517f08c379a0000000000000000000000000000000000000000000000000000000008152600401610e4190611716565b60405180910390fd5b600260008190555060008111610e95576040517f08c379a0000000000000000000000000000000000000000000000000000000008152600401610e8c90611696565b60405180910390fd5b610e9d6112cd565b60016000815480929190610eb090611a01565b919050555060015481600001818152505083816020019073ffffffffffffffffffffffffffffffffffffffff16908173ffffffffffffffffffffffffffffffffffffffff1681525050828160400181815250508181606001818152505033816080019073ffffffffffffffffffffffffffffffffffffffff16908173ffffffffffffffffffffffffffffffffffffffff168152505060018160a0019015159081151581525050806002600060015481526020019081526020016000206000820151816000015560208201518160010160006101000a81548173ffffffffffffffffffffffffffffffffffffffff021916908373ffffffffffffffffffffffffffffffffffffffff160217905550604082015181600201556060820151816003015560808201518160040160006101000a81548173ffffffffffffffffffffffffffffffffffffffff021916908373ffffffffffffffffffffffffffffffffffffffff16021790555060a08201518160040160146101000a81548160ff02191690831515021790555090505060015460036000858152602001908152602001600020819055508373ffffffffffffffffffffffffffffffffffffffff166323b872dd3330866040518463ffffffff1660e01b81526004016110929392919061161d565b600060405180830381600087803b1580156110ac57600080fd5b505af11580156110c0573d6000803e3d6000fd5b505050503373ffffffffffffffffffffffffffffffffffffffff168473ffffffffffffffffffffffffffffffffffffffff167f8bde039e10cd46aa2b83e1e53a871627945293b7e2ff88de5e1fb983b93aaca76001548686604051611127939291906117db565b60405180910390a3506001600081905550505050565b600080600090506000600190505b60015481116112c3576000600260008381526020019081526020016000206040518060c0016040529081600082015481526020016001820160009054906101000a900473ffffffffffffffffffffffffffffffffffffffff1673ffffffffffffffffffffffffffffffffffffffff1673ffffffffffffffffffffffffffffffffffffffff16815260200160028201548152602001600382015481526020016004820160009054906101000a900473ffffffffffffffffffffffffffffffffffffffff1673ffffffffffffffffffffffffffffffffffffffff1673ffffffffffffffffffffffffffffffffffffffff1681526020016004820160149054906101000a900460ff16151515158152505090508473ffffffffffffffffffffffffffffffffffffffff16816080015173ffffffffffffffffffffffffffffffffffffffff1614801561129b57508060a001515b156112af5782806112ab90611a01565b9350505b5080806112bb90611a01565b91505061114b565b5080915050919050565b6040518060c0016040528060008152602001600073ffffffffffffffffffffffffffffffffffffffff1681526020016000815260200160008152602001600073ffffffffffffffffffffffffffffffffffffffff1681526020016000151581525090565b60008135905061134081611b9e565b92915050565b60008135905061135581611bb5565b92915050565b60008135905061136a81611bcc565b92915050565b60006020828403121561138257600080fd5b600061139084828501611331565b91505092915050565b6000806000606084860312156113ae57600080fd5b60006113bc86828701611331565b93505060206113cd86828701611331565b92505060406113de8682870161135b565b9150509250925092565b6000806000606084860312156113fd57600080fd5b600061140b86828701611346565b935050602061141c8682870161135b565b925050604061142d8682870161135b565b9150509250925092565b60006020828403121561144957600080fd5b60006114578482850161135b565b91505092915050565b600061146c83836115e4565b60208301905092915050565b61148181611983565b82525050565b61149081611971565b82525050565b60006114a182611822565b6114ab818561183a565b93506114b683611812565b8060005b838110156114e75781516114ce8882611460565b97506114d98361182d565b9250506001810190506114ba565b5085935050505092915050565b6114fd81611995565b82525050565b61150c816119dd565b82525050565b600061151f60118361184b565b915061152a82611aa8565b602082019050919050565b6000611542601f8361184b565b915061154d82611ad1565b602082019050919050565b600061156560148361184b565b915061157082611afa565b602082019050919050565b600061158860128361184b565b915061159382611b23565b602082019050919050565b60006115ab600d8361184b565b91506115b682611b4c565b602082019050919050565b60006115ce601f8361184b565b91506115d982611b75565b602082019050919050565b6115ed816119d3565b82525050565b6115fc816119d3565b82525050565b60006020820190506116176000830184611478565b92915050565b60006060820190506116326000830186611487565b61163f6020830185611487565b61164c60408301846115f3565b949350505050565b6000602082019050818103600083015261166e8184611496565b905092915050565b6000602082019050818103600083015261168f81611512565b9050919050565b600060208201905081810360008301526116af81611535565b9050919050565b600060208201905081810360008301526116cf81611558565b9050919050565b600060208201905081810360008301526116ef8161157b565b9050919050565b6000602082019050818103600083015261170f8161159e565b9050919050565b6000602082019050818103600083015261172f816115c1565b9050919050565b600060208201905061174b60008301846115f3565b92915050565b600060c08201905061176660008301896115f3565b6117736020830188611503565b61178060408301876115f3565b61178d60608301866115f3565b61179a6080830185611478565b6117a760a08301846114f4565b979650505050505050565b60006040820190506117c760008301856115f3565b6117d460208301846115f3565b9392505050565b60006060820190506117f060008301866115f3565b6117fd60208301856115f3565b61180a60408301846115f3565b949350505050565b6000819050602082019050919050565b600081519050919050565b6000602082019050919050565b600082825260208201905092915050565b600082825260208201905092915050565b6000611867826119d3565b9150611872836119d3565b9250827fffffffffffffffffffffffffffffffffffffffffffffffffffffffffffffffff038211156118a7576118a6611a4a565b5b828201905092915050565b60006118bd826119d3565b91506118c8836119d3565b9250826118d8576118d7611a79565b5b828204905092915050565b60006118ee826119d3565b91506118f9836119d3565b9250817fffffffffffffffffffffffffffffffffffffffffffffffffffffffffffffffff048311821515161561193257611931611a4a565b5b828202905092915050565b6000611948826119d3565b9150611953836119d3565b92508282101561196657611965611a4a565b5b828203905092915050565b600061197c826119b3565b9050919050565b600061198e826119b3565b9050919050565b60008115159050919050565b60006119ac82611971565b9050919050565b600073ffffffffffffffffffffffffffffffffffffffff82169050919050565b6000819050919050565b60006119e8826119ef565b9050919050565b60006119fa826119b3565b9050919050565b6000611a0c826119d3565b91507fffffffffffffffffffffffffffffffffffffffffffffffffffffffffffffffff821415611a3f57611a3e611a4a565b5b600182019050919050565b7f4e487b7100000000000000000000000000000000000000000000000000000000600052601160045260246000fd5b7f4e487b7100000000000000000000000000000000000000000000000000000000600052601260045260246000fd5b7f6974656d20616c726561647920736f6c64000000000000000000000000000000600082015250565b7f5072696365206d7573742062652067726561746572207468616e207a65726f00600082015250565b7f6e6f7420656e6f75676820657468657220627579000000000000000000000000600082015250565b7f6974656d20646f65736e27742065786973740000000000000000000000000000600082015250565b7f4e6f7420746865206f776e657200000000000000000000000000000000000000600082015250565b7f5265656e7472616e637947756172643a207265656e7472616e742063616c6c00600082015250565b611ba781611971565b8114611bb257600080fd5b50565b611bbe816119a1565b8114611bc957600080fd5b50565b611bd5816119d3565b8114611be057600080fd5b5056fea2646970667358221220ec561c8d7249a7dc6a80efbbc192f134b6c15d5774a6df0f0fa6f5245d1108f564736f6c63430008040033",
  "linkReferences": {},
  "deployedLinkReferences": {}
}