{
  "_format": "hh-sol-artifact-1",
  "contractName": "NFT",
  "sourceName": "src/contract/contracts/NFT.sol",
  "abi": [
    {
      "inputs": [],
      "stateMutability": "nonpayable",
      "type": "constructor"
    },
    {
      "anonymous": false,
      "inputs": [
        {
          "indexed": true,
          "internalType": "address",
          "name": "owner",
          "type": "address"
        },
        {
          "indexed": true,
          "internalType": "address",
          "name": "approved",
          "type": "address"
        },
        {
          "indexed": true,
          "internalType": "uint256",
          "name": "tokenId",
          "type": "uint256"
        }
      ],
      "name": "Approval",
      "type": "event"
    },
    {
      "anonymous": false,
      "inputs": [
        {
          "indexed": true,
          "internalType": "address",
          "name": "owner",
          "type": "address"
        },
        {
          "indexed": true,
          "internalType": "address",
          "name": "operator",
          "type": "address"
        },
        {
          "indexed": false,
          "internalType": "bool",
          "name": "approved",
          "type": "bool"
        }
      ],
      "name": "ApprovalForAll",
      "type": "event"
    },
    {
      "anonymous": false,
      "inputs": [
        {
          "indexed": true,
          "internalType": "address",
          "name": "to",
          "type": "address"
        },
        {
          "indexed": false,
          "internalType": "string",
          "name": "uri",
          "type": "string"
        },
        {
          "indexed": false,
          "internalType": "uint256",
          "name": "tokenId",
          "type": "uint256"
        }
      ],
      "name": "MintNFT",
      "type": "event"
    },
    {
      "anonymous": false,
      "inputs": [
        {
          "indexed": true,
          "internalType": "address",
          "name": "from",
          "type": "address"
        },
        {
          "indexed": true,
          "internalType": "address",
          "name": "to",
          "type": "address"
        },
        {
          "indexed": true,
          "internalType": "uint256",
          "name": "tokenId",
          "type": "uint256"
        }
      ],
      "name": "Transfer",
      "type": "event"
    },
    {
      "inputs": [
        {
          "internalType": "address",
          "name": "to",
          "type": "address"
        },
        {
          "internalType": "uint256",
          "name": "tokenId",
          "type": "uint256"
        }
      ],
      "name": "approve",
      "outputs": [],
      "stateMutability": "nonpayable",
      "type": "function"
    },
    {
      "inputs": [
        {
          "internalType": "address",
          "name": "owner",
          "type": "address"
        }
      ],
      "name": "balanceOf",
      "outputs": [
        {
          "internalType": "uint256",
          "name": "",
          "type": "uint256"
        }
      ],
      "stateMutability": "view",
      "type": "function"
    },
    {
      "inputs": [
        {
          "internalType": "address",
          "name": "owner",
          "type": "address"
        }
      ],
      "name": "getAllNFTOwned",
      "outputs": [
        {
          "internalType": "uint256[]",
          "name": "",
          "type": "uint256[]"
        }
      ],
      "stateMutability": "view",
      "type": "function"
    },
    {
      "inputs": [
        {
          "internalType": "uint256",
          "name": "tokenId",
          "type": "uint256"
        }
      ],
      "name": "getApproved",
      "outputs": [
        {
          "internalType": "address",
          "name": "",
          "type": "address"
        }
      ],
      "stateMutability": "view",
      "type": "function"
    },
    {
      "inputs": [
        {
          "internalType": "address",
          "name": "owner",
          "type": "address"
        },
        {
          "internalType": "address",
          "name": "operator",
          "type": "address"
        }
      ],
      "name": "isApprovedForAll",
      "outputs": [
        {
          "internalType": "bool",
          "name": "",
          "type": "bool"
        }
      ],
      "stateMutability": "view",
      "type": "function"
    },
    {
      "inputs": [
        {
          "internalType": "string",
          "name": "_tokenURI",
          "type": "string"
        }
      ],
      "name": "mint",
      "outputs": [
        {
          "internalType": "uint256",
          "name": "",
          "type": "uint256"
        }
      ],
      "stateMutability": "nonpayable",
      "type": "function"
    },
    {
      "inputs": [],
      "name": "name",
      "outputs": [
        {
          "internalType": "string",
          "name": "",
          "type": "string"
        }
      ],
      "stateMutability": "view",
      "type": "function"
    },
    {
      "inputs": [
        {
          "internalType": "uint256",
          "name": "tokenId",
          "type": "uint256"
        }
      ],
      "name": "ownerOf",
      "outputs": [
        {
          "internalType": "address",
          "name": "",
          "type": "address"
        }
      ],
      "stateMutability": "view",
      "type": "function"
    },
    {
      "inputs": [
        {
          "internalType": "address",
          "name": "from",
          "type": "address"
        },
        {
          "internalType": "address",
          "name": "to",
          "type": "address"
        },
        {
          "internalType": "uint256",
          "name": "tokenId",
          "type": "uint256"
        }
      ],
      "name": "safeTransferFrom",
      "outputs": [],
      "stateMutability": "nonpayable",
      "type": "function"
    },
    {
      "inputs": [
        {
          "internalType": "address",
          "name": "from",
          "type": "address"
        },
        {
          "internalType": "address",
          "name": "to",
          "type": "address"
        },
        {
          "internalType": "uint256",
          "name": "tokenId",
          "type": "uint256"
        },
        {
          "internalType": "bytes",
          "name": "_data",
          "type": "bytes"
        }
      ],
      "name": "safeTransferFrom",
      "outputs": [],
      "stateMutability": "nonpayable",
      "type": "function"
    },
    {
      "inputs": [
        {
          "internalType": "address",
          "name": "operator",
          "type": "address"
        },
        {
          "internalType": "bool",
          "name": "approved",
          "type": "bool"
        }
      ],
      "name": "setApprovalForAll",
      "outputs": [],
      "stateMutability": "nonpayable",
      "type": "function"
    },
    {
      "inputs": [
        {
          "internalType": "bytes4",
          "name": "interfaceId",
          "type": "bytes4"
        }
      ],
      "name": "supportsInterface",
      "outputs": [
        {
          "internalType": "bool",
          "name": "",
          "type": "bool"
        }
      ],
      "stateMutability": "view",
      "type": "function"
    },
    {
      "inputs": [],
      "name": "symbol",
      "outputs": [
        {
          "internalType": "string",
          "name": "",
          "type": "string"
        }
      ],
      "stateMutability": "view",
      "type": "function"
    },
    {
      "inputs": [],
      "name": "tokenCount",
      "outputs": [
        {
          "internalType": "uint256",
          "name": "",
          "type": "uint256"
        }
      ],
      "stateMutability": "view",
      "type": "function"
    },
    {
      "inputs": [
        {
          "internalType": "uint256",
          "name": "tokenId",
          "type": "uint256"
        }
      ],
      "name": "tokenURI",
      "outputs": [
        {
          "internalType": "string",
          "name": "",
          "type": "string"
        }
      ],
      "stateMutability": "view",
      "type": "function"
    },
    {
      "inputs": [
        {
          "internalType": "address",
          "name": "from",
          "type": "address"
        },
        {
          "internalType": "address",
          "name": "to",
          "type": "address"
        },
        {
          "internalType": "uint256",
          "name": "tokenId",
          "type": "uint256"
        }
      ],
      "name": "transferFrom",
      "outputs": [],
      "stateMutability": "nonpayable",
      "type": "function"
    }
  ],
  "bytecode": "0x60806040523480156200001157600080fd5b506040518060400160405280600881526020017f44417070204e46540000000000000000000000000000000000000000000000008152506040518060400160405280600481526020017f4441505000000000000000000000000000000000000000000000000000000000815250816000908051906020019062000096929190620000b8565b508060019080519060200190620000af929190620000b8565b505050620001cd565b828054620000c69062000168565b90600052602060002090601f016020900481019282620000ea576000855562000136565b82601f106200010557805160ff191683800117855562000136565b8280016001018555821562000136579182015b828111156200013557825182559160200191906001019062000118565b5b50905062000145919062000149565b5090565b5b80821115620001645760008160009055506001016200014a565b5090565b600060028204905060018216806200018157607f821691505b602082108114156200019857620001976200019e565b5b50919050565b7f4e487b7100000000000000000000000000000000000000000000000000000000600052602260045260246000fd5b612f1a80620001dd6000396000f3fe608060405234801561001057600080fd5b50600436106101005760003560e01c806395d89b4111610097578063c87b56dd11610066578063c87b56dd146102ab578063d495e220146102db578063d85d3d271461030b578063e985e9c51461033b57610100565b806395d89b41146102375780639f181b5e14610255578063a22cb46514610273578063b88d4fde1461028f57610100565b806323b872dd116100d357806323b872dd1461019f57806342842e0e146101bb5780636352211e146101d757806370a082311461020757610100565b806301ffc9a71461010557806306fdde0314610135578063081812fc14610153578063095ea7b314610183575b600080fd5b61011f600480360381019061011a9190611e76565b61036b565b60405161012c9190612364565b60405180910390f35b61013d61044d565b60405161014a919061237f565b60405180910390f35b61016d60048036038101906101689190611f09565b6104df565b60405161017a91906122db565b60405180910390f35b61019d60048036038101906101989190611e3a565b610564565b005b6101b960048036038101906101b49190611d34565b61067c565b005b6101d560048036038101906101d09190611d34565b6106dc565b005b6101f160048036038101906101ec9190611f09565b6106fc565b6040516101fe91906122db565b60405180910390f35b610221600480360381019061021c9190611ccf565b6107ae565b60405161022e91906125d1565b60405180910390f35b61023f610866565b60405161024c919061237f565b60405180910390f35b61025d6108f8565b60405161026a91906125d1565b60405180910390f35b61028d60048036038101906102889190611dfe565b6108fe565b005b6102a960048036038101906102a49190611d83565b610914565b005b6102c560048036038101906102c09190611f09565b610976565b6040516102d2919061237f565b60405180910390f35b6102f560048036038101906102f09190611ccf565b610ac8565b6040516103029190612342565b60405180910390f35b61032560048036038101906103209190611ec8565b610c2c565b60405161033291906125d1565b60405180910390f35b61035560048036038101906103509190611cf8565b610cc4565b6040516103629190612364565b60405180910390f35b60007f80ac58cd000000000000000000000000000000000000000000000000000000007bffffffffffffffffffffffffffffffffffffffffffffffffffffffff1916827bffffffffffffffffffffffffffffffffffffffffffffffffffffffff1916148061043657507f5b5e139f000000000000000000000000000000000000000000000000000000007bffffffffffffffffffffffffffffffffffffffffffffffffffffffff1916827bffffffffffffffffffffffffffffffffffffffffffffffffffffffff1916145b80610446575061044582610d58565b5b9050919050565b60606000805461045c90612860565b80601f016020809104026020016040519081016040528092919081815260200182805461048890612860565b80156104d55780601f106104aa576101008083540402835291602001916104d5565b820191906000526020600020905b8154815290600101906020018083116104b857829003601f168201915b5050505050905090565b60006104ea82610dc2565b610529576040517f08c379a000000000000000000000000000000000000000000000000000000000815260040161052090612551565b60405180910390fd5b6004600083815260200190815260200160002060009054906101000a900473ffffffffffffffffffffffffffffffffffffffff169050919050565b600061056f826106fc565b90508073ffffffffffffffffffffffffffffffffffffffff168373ffffffffffffffffffffffffffffffffffffffff1614156105e0576040517f08c379a00000000000000000000000000000000000000000000000000000000081526004016105d790612591565b60405180910390fd5b8073ffffffffffffffffffffffffffffffffffffffff166105ff610e2e565b73ffffffffffffffffffffffffffffffffffffffff16148061062e575061062d81610628610e2e565b610cc4565b5b61066d576040517f08c379a000000000000000000000000000000000000000000000000000000000815260040161066490612491565b60405180910390fd5b6106778383610e36565b505050565b61068d610687610e2e565b82610eef565b6106cc576040517f08c379a00000000000000000000000000000000000000000000000000000000081526004016106c3906125b1565b60405180910390fd5b6106d7838383610fcd565b505050565b6106f783838360405180602001604052806000815250610914565b505050565b6000806002600084815260200190815260200160002060009054906101000a900473ffffffffffffffffffffffffffffffffffffffff169050600073ffffffffffffffffffffffffffffffffffffffff168173ffffffffffffffffffffffffffffffffffffffff1614156107a5576040517f08c379a000000000000000000000000000000000000000000000000000000000815260040161079c906124d1565b60405180910390fd5b80915050919050565b60008073ffffffffffffffffffffffffffffffffffffffff168273ffffffffffffffffffffffffffffffffffffffff16141561081f576040517f08c379a0000000000000000000000000000000000000000000000000000000008152600401610816906124b1565b60405180910390fd5b600360008373ffffffffffffffffffffffffffffffffffffffff1673ffffffffffffffffffffffffffffffffffffffff168152602001908152602001600020549050919050565b60606001805461087590612860565b80601f01602080910402602001604051908101604052809291908181526020018280546108a190612860565b80156108ee5780601f106108c3576101008083540402835291602001916108ee565b820191906000526020600020905b8154815290600101906020018083116108d157829003601f168201915b5050505050905090565b60075481565b610910610909610e2e565b8383611234565b5050565b61092561091f610e2e565b83610eef565b610964576040517f08c379a000000000000000000000000000000000000000000000000000000000815260040161095b906125b1565b60405180910390fd5b610970848484846113a1565b50505050565b606061098182610dc2565b6109c0576040517f08c379a00000000000000000000000000000000000000000000000000000000081526004016109b790612531565b60405180910390fd5b60006006600084815260200190815260200160002080546109e090612860565b80601f0160208091040260200160405190810160405280929190818152602001828054610a0c90612860565b8015610a595780601f10610a2e57610100808354040283529160200191610a59565b820191906000526020600020905b815481529060010190602001808311610a3c57829003601f168201915b505050505090506000610a6a6113fd565b9050600081511415610a80578192505050610ac3565b600082511115610ab5578082604051602001610a9d9291906122b7565b60405160208183030381529060405292505050610ac3565b610abe84611414565b925050505b919050565b60606000610ad5836107ae565b905060008167ffffffffffffffff811115610b19577f4e487b7100000000000000000000000000000000000000000000000000000000600052604160045260246000fd5b604051908082528060200260200182016040528015610b475781602001602082028036833780820191505090505b5090506000821415610b5d578092505050610c27565b600080600190505b6007548111610c1f578573ffffffffffffffffffffffffffffffffffffffff16610b8e826106fc565b73ffffffffffffffffffffffffffffffffffffffff161415610bff5780838381518110610be4577f4e487b7100000000000000000000000000000000000000000000000000000000600052603260045260246000fd5b6020026020010181815250508180610bfb906128c3565b9250505b81841415610c0c57610c1f565b8080610c17906128c3565b915050610b65565b508193505050505b919050565b600060076000815480929190610c41906128c3565b9190505550610c52336007546114bb565b610c5e600754836114d9565b3373ffffffffffffffffffffffffffffffffffffffff167f28c48897c00eeaf23cf918f3d080d78bafea4bf929e963d04d1683db110de350610ca1600754610976565b600754604051610cb29291906123a1565b60405180910390a26007549050919050565b6000600560008473ffffffffffffffffffffffffffffffffffffffff1673ffffffffffffffffffffffffffffffffffffffff16815260200190815260200160002060008373ffffffffffffffffffffffffffffffffffffffff1673ffffffffffffffffffffffffffffffffffffffff16815260200190815260200160002060009054906101000a900460ff16905092915050565b60007f01ffc9a7000000000000000000000000000000000000000000000000000000007bffffffffffffffffffffffffffffffffffffffffffffffffffffffff1916827bffffffffffffffffffffffffffffffffffffffffffffffffffffffff1916149050919050565b60008073ffffffffffffffffffffffffffffffffffffffff166002600084815260200190815260200160002060009054906101000a900473ffffffffffffffffffffffffffffffffffffffff1673ffffffffffffffffffffffffffffffffffffffff1614159050919050565b600033905090565b816004600083815260200190815260200160002060006101000a81548173ffffffffffffffffffffffffffffffffffffffff021916908373ffffffffffffffffffffffffffffffffffffffff160217905550808273ffffffffffffffffffffffffffffffffffffffff16610ea9836106fc565b73ffffffffffffffffffffffffffffffffffffffff167f8c5be1e5ebec7d5bd14f71427d1e84f3dd0314c0f7b2291e5b200ac8c7c3b92560405160405180910390a45050565b6000610efa82610dc2565b610f39576040517f08c379a0000000000000000000000000000000000000000000000000000000008152600401610f3090612471565b60405180910390fd5b6000610f44836106fc565b90508073ffffffffffffffffffffffffffffffffffffffff168473ffffffffffffffffffffffffffffffffffffffff161480610fb357508373ffffffffffffffffffffffffffffffffffffffff16610f9b846104df565b73ffffffffffffffffffffffffffffffffffffffff16145b80610fc45750610fc38185610cc4565b5b91505092915050565b8273ffffffffffffffffffffffffffffffffffffffff16610fed826106fc565b73ffffffffffffffffffffffffffffffffffffffff1614611043576040517f08c379a000000000000000000000000000000000000000000000000000000000815260040161103a906123f1565b60405180910390fd5b600073ffffffffffffffffffffffffffffffffffffffff168273ffffffffffffffffffffffffffffffffffffffff1614156110b3576040517f08c379a00000000000000000000000000000000000000000000000000000000081526004016110aa90612431565b60405180910390fd5b6110be83838361154d565b6110c9600082610e36565b6001600360008573ffffffffffffffffffffffffffffffffffffffff1673ffffffffffffffffffffffffffffffffffffffff16815260200190815260200160002060008282546111199190612776565b925050819055506001600360008473ffffffffffffffffffffffffffffffffffffffff1673ffffffffffffffffffffffffffffffffffffffff168152602001908152602001600020600082825461117091906126ef565b92505081905550816002600083815260200190815260200160002060006101000a81548173ffffffffffffffffffffffffffffffffffffffff021916908373ffffffffffffffffffffffffffffffffffffffff160217905550808273ffffffffffffffffffffffffffffffffffffffff168473ffffffffffffffffffffffffffffffffffffffff167fddf252ad1be2c89b69c2b068fc378daa952ba7f163c4a11628f55a4df523b3ef60405160405180910390a461122f838383611552565b505050565b8173ffffffffffffffffffffffffffffffffffffffff168373ffffffffffffffffffffffffffffffffffffffff1614156112a3576040517f08c379a000000000000000000000000000000000000000000000000000000000815260040161129a90612451565b60405180910390fd5b80600560008573ffffffffffffffffffffffffffffffffffffffff1673ffffffffffffffffffffffffffffffffffffffff16815260200190815260200160002060008473ffffffffffffffffffffffffffffffffffffffff1673ffffffffffffffffffffffffffffffffffffffff16815260200190815260200160002060006101000a81548160ff0219169083151502179055508173ffffffffffffffffffffffffffffffffffffffff168373ffffffffffffffffffffffffffffffffffffffff167f17307eab39ab6107e8899845ad3d59bd9653f200f220920489ca2b5937696c31836040516113949190612364565b60405180910390a3505050565b6113ac848484610fcd565b6113b884848484611557565b6113f7576040517f08c379a00000000000000000000000000000000000000000000000000000000081526004016113ee906123d1565b60405180910390fd5b50505050565b606060405180602001604052806000815250905090565b606061141f82610dc2565b61145e576040517f08c379a000000000000000000000000000000000000000000000000000000000815260040161145590612571565b60405180910390fd5b60006114686113fd565b9050600081511161148857604051806020016040528060008152506114b3565b80611492846116ee565b6040516020016114a39291906122b7565b6040516020818303038152906040525b915050919050565b6114d582826040518060200160405280600081525061189b565b5050565b6114e282610dc2565b611521576040517f08c379a0000000000000000000000000000000000000000000000000000000008152600401611518906124f1565b60405180910390fd5b80600660008481526020019081526020016000209080519060200190611548929190611af3565b505050565b505050565b505050565b60006115788473ffffffffffffffffffffffffffffffffffffffff166118f6565b156116e1578373ffffffffffffffffffffffffffffffffffffffff1663150b7a026115a1610e2e565b8786866040518563ffffffff1660e01b81526004016115c394939291906122f6565b602060405180830381600087803b1580156115dd57600080fd5b505af192505050801561160e57506040513d601f19601f8201168201806040525081019061160b9190611e9f565b60015b611691573d806000811461163e576040519150601f19603f3d011682016040523d82523d6000602084013e611643565b606091505b50600081511415611689576040517f08c379a0000000000000000000000000000000000000000000000000000000008152600401611680906123d1565b60405180910390fd5b805181602001fd5b63150b7a0260e01b7bffffffffffffffffffffffffffffffffffffffffffffffffffffffff1916817bffffffffffffffffffffffffffffffffffffffffffffffffffffffff1916149150506116e6565b600190505b949350505050565b60606000821415611736576040518060400160405280600181526020017f30000000000000000000000000000000000000000000000000000000000000008152509050611896565b600082905060005b60008214611768578080611751906128c3565b915050600a826117619190612745565b915061173e565b60008167ffffffffffffffff8111156117aa577f4e487b7100000000000000000000000000000000000000000000000000000000600052604160045260246000fd5b6040519080825280601f01601f1916602001820160405280156117dc5781602001600182028036833780820191505090505b5090505b6000851461188f576001826117f59190612776565b9150600a85611804919061290c565b603061181091906126ef565b60f81b81838151811061184c577f4e487b7100000000000000000000000000000000000000000000000000000000600052603260045260246000fd5b60200101907effffffffffffffffffffffffffffffffffffffffffffffffffffffffffffff1916908160001a905350600a856118889190612745565b94506117e0565b8093505050505b919050565b6118a58383611919565b6118b26000848484611557565b6118f1576040517f08c379a00000000000000000000000000000000000000000000000000000000081526004016118e8906123d1565b60405180910390fd5b505050565b6000808273ffffffffffffffffffffffffffffffffffffffff163b119050919050565b600073ffffffffffffffffffffffffffffffffffffffff168273ffffffffffffffffffffffffffffffffffffffff161415611989576040517f08c379a000000000000000000000000000000000000000000000000000000000815260040161198090612511565b60405180910390fd5b61199281610dc2565b156119d2576040517f08c379a00000000000000000000000000000000000000000000000000000000081526004016119c990612411565b60405180910390fd5b6119de6000838361154d565b6001600360008473ffffffffffffffffffffffffffffffffffffffff1673ffffffffffffffffffffffffffffffffffffffff1681526020019081526020016000206000828254611a2e91906126ef565b92505081905550816002600083815260200190815260200160002060006101000a81548173ffffffffffffffffffffffffffffffffffffffff021916908373ffffffffffffffffffffffffffffffffffffffff160217905550808273ffffffffffffffffffffffffffffffffffffffff16600073ffffffffffffffffffffffffffffffffffffffff167fddf252ad1be2c89b69c2b068fc378daa952ba7f163c4a11628f55a4df523b3ef60405160405180910390a4611aef60008383611552565b5050565b828054611aff90612860565b90600052602060002090601f016020900481019282611b215760008555611b68565b82601f10611b3a57805160ff1916838001178555611b68565b82800160010185558215611b68579182015b82811115611b67578251825591602001919060010190611b4c565b5b509050611b759190611b79565b5090565b5b80821115611b92576000816000905550600101611b7a565b5090565b6000611ba9611ba484612611565b6125ec565b905082815260208101848484011115611bc157600080fd5b611bcc84828561281e565b509392505050565b6000611be7611be284612642565b6125ec565b905082815260208101848484011115611bff57600080fd5b611c0a84828561281e565b509392505050565b600081359050611c2181612e88565b92915050565b600081359050611c3681612e9f565b92915050565b600081359050611c4b81612eb6565b92915050565b600081519050611c6081612eb6565b92915050565b600082601f830112611c7757600080fd5b8135611c87848260208601611b96565b91505092915050565b600082601f830112611ca157600080fd5b8135611cb1848260208601611bd4565b91505092915050565b600081359050611cc981612ecd565b92915050565b600060208284031215611ce157600080fd5b6000611cef84828501611c12565b91505092915050565b60008060408385031215611d0b57600080fd5b6000611d1985828601611c12565b9250506020611d2a85828601611c12565b9150509250929050565b600080600060608486031215611d4957600080fd5b6000611d5786828701611c12565b9350506020611d6886828701611c12565b9250506040611d7986828701611cba565b9150509250925092565b60008060008060808587031215611d9957600080fd5b6000611da787828801611c12565b9450506020611db887828801611c12565b9350506040611dc987828801611cba565b925050606085013567ffffffffffffffff811115611de657600080fd5b611df287828801611c66565b91505092959194509250565b60008060408385031215611e1157600080fd5b6000611e1f85828601611c12565b9250506020611e3085828601611c27565b9150509250929050565b60008060408385031215611e4d57600080fd5b6000611e5b85828601611c12565b9250506020611e6c85828601611cba565b9150509250929050565b600060208284031215611e8857600080fd5b6000611e9684828501611c3c565b91505092915050565b600060208284031215611eb157600080fd5b6000611ebf84828501611c51565b91505092915050565b600060208284031215611eda57600080fd5b600082013567ffffffffffffffff811115611ef457600080fd5b611f0084828501611c90565b91505092915050565b600060208284031215611f1b57600080fd5b6000611f2984828501611cba565b91505092915050565b6000611f3e8383612299565b60208301905092915050565b611f53816127aa565b82525050565b6000611f6482612683565b611f6e81856126b1565b9350611f7983612673565b8060005b83811015611faa578151611f918882611f32565b9750611f9c836126a4565b925050600181019050611f7d565b5085935050505092915050565b611fc0816127bc565b82525050565b6000611fd18261268e565b611fdb81856126c2565b9350611feb81856020860161282d565b611ff4816129f9565b840191505092915050565b600061200a82612699565b61201481856126d3565b935061202481856020860161282d565b61202d816129f9565b840191505092915050565b600061204382612699565b61204d81856126e4565b935061205d81856020860161282d565b80840191505092915050565b60006120766032836126d3565b915061208182612a0a565b604082019050919050565b60006120996025836126d3565b91506120a482612a59565b604082019050919050565b60006120bc601c836126d3565b91506120c782612aa8565b602082019050919050565b60006120df6024836126d3565b91506120ea82612ad1565b604082019050919050565b60006121026019836126d3565b915061210d82612b20565b602082019050919050565b6000612125602c836126d3565b915061213082612b49565b604082019050919050565b60006121486038836126d3565b915061215382612b98565b604082019050919050565b600061216b602a836126d3565b915061217682612be7565b604082019050919050565b600061218e6029836126d3565b915061219982612c36565b604082019050919050565b60006121b1602e836126d3565b91506121bc82612c85565b604082019050919050565b60006121d46020836126d3565b91506121df82612cd4565b602082019050919050565b60006121f76031836126d3565b915061220282612cfd565b604082019050919050565b600061221a602c836126d3565b915061222582612d4c565b604082019050919050565b600061223d602f836126d3565b915061224882612d9b565b604082019050919050565b60006122606021836126d3565b915061226b82612dea565b604082019050919050565b60006122836031836126d3565b915061228e82612e39565b604082019050919050565b6122a281612814565b82525050565b6122b181612814565b82525050565b60006122c38285612038565b91506122cf8284612038565b91508190509392505050565b60006020820190506122f06000830184611f4a565b92915050565b600060808201905061230b6000830187611f4a565b6123186020830186611f4a565b61232560408301856122a8565b81810360608301526123378184611fc6565b905095945050505050565b6000602082019050818103600083015261235c8184611f59565b905092915050565b60006020820190506123796000830184611fb7565b92915050565b600060208201905081810360008301526123998184611fff565b905092915050565b600060408201905081810360008301526123bb8185611fff565b90506123ca60208301846122a8565b9392505050565b600060208201905081810360008301526123ea81612069565b9050919050565b6000602082019050818103600083015261240a8161208c565b9050919050565b6000602082019050818103600083015261242a816120af565b9050919050565b6000602082019050818103600083015261244a816120d2565b9050919050565b6000602082019050818103600083015261246a816120f5565b9050919050565b6000602082019050818103600083015261248a81612118565b9050919050565b600060208201905081810360008301526124aa8161213b565b9050919050565b600060208201905081810360008301526124ca8161215e565b9050919050565b600060208201905081810360008301526124ea81612181565b9050919050565b6000602082019050818103600083015261250a816121a4565b9050919050565b6000602082019050818103600083015261252a816121c7565b9050919050565b6000602082019050818103600083015261254a816121ea565b9050919050565b6000602082019050818103600083015261256a8161220d565b9050919050565b6000602082019050818103600083015261258a81612230565b9050919050565b600060208201905081810360008301526125aa81612253565b9050919050565b600060208201905081810360008301526125ca81612276565b9050919050565b60006020820190506125e660008301846122a8565b92915050565b60006125f6612607565b90506126028282612892565b919050565b6000604051905090565b600067ffffffffffffffff82111561262c5761262b6129ca565b5b612635826129f9565b9050602081019050919050565b600067ffffffffffffffff82111561265d5761265c6129ca565b5b612666826129f9565b9050602081019050919050565b6000819050602082019050919050565b600081519050919050565b600081519050919050565b600081519050919050565b6000602082019050919050565b600082825260208201905092915050565b600082825260208201905092915050565b600082825260208201905092915050565b600081905092915050565b60006126fa82612814565b915061270583612814565b9250827fffffffffffffffffffffffffffffffffffffffffffffffffffffffffffffffff0382111561273a5761273961293d565b5b828201905092915050565b600061275082612814565b915061275b83612814565b92508261276b5761276a61296c565b5b828204905092915050565b600061278182612814565b915061278c83612814565b92508282101561279f5761279e61293d565b5b828203905092915050565b60006127b5826127f4565b9050919050565b60008115159050919050565b60007fffffffff0000000000000000000000000000000000000000000000000000000082169050919050565b600073ffffffffffffffffffffffffffffffffffffffff82169050919050565b6000819050919050565b82818337600083830152505050565b60005b8381101561284b578082015181840152602081019050612830565b8381111561285a576000848401525b50505050565b6000600282049050600182168061287857607f821691505b6020821081141561288c5761288b61299b565b5b50919050565b61289b826129f9565b810181811067ffffffffffffffff821117156128ba576128b96129ca565b5b80604052505050565b60006128ce82612814565b91507fffffffffffffffffffffffffffffffffffffffffffffffffffffffffffffffff8214156129015761290061293d565b5b600182019050919050565b600061291782612814565b915061292283612814565b9250826129325761293161296c565b5b828206905092915050565b7f4e487b7100000000000000000000000000000000000000000000000000000000600052601160045260246000fd5b7f4e487b7100000000000000000000000000000000000000000000000000000000600052601260045260246000fd5b7f4e487b7100000000000000000000000000000000000000000000000000000000600052602260045260246000fd5b7f4e487b7100000000000000000000000000000000000000000000000000000000600052604160045260246000fd5b6000601f19601f8301169050919050565b7f4552433732313a207472616e7366657220746f206e6f6e20455243373231526560008201527f63656976657220696d706c656d656e7465720000000000000000000000000000602082015250565b7f4552433732313a207472616e736665722066726f6d20696e636f72726563742060008201527f6f776e6572000000000000000000000000000000000000000000000000000000602082015250565b7f4552433732313a20746f6b656e20616c7265616479206d696e74656400000000600082015250565b7f4552433732313a207472616e7366657220746f20746865207a65726f2061646460008201527f7265737300000000000000000000000000000000000000000000000000000000602082015250565b7f4552433732313a20617070726f766520746f2063616c6c657200000000000000600082015250565b7f4552433732313a206f70657261746f7220717565727920666f72206e6f6e657860008201527f697374656e7420746f6b656e0000000000000000000000000000000000000000602082015250565b7f4552433732313a20617070726f76652063616c6c6572206973206e6f74206f7760008201527f6e6572206e6f7220617070726f76656420666f7220616c6c0000000000000000602082015250565b7f4552433732313a2062616c616e636520717565727920666f7220746865207a6560008201527f726f206164647265737300000000000000000000000000000000000000000000602082015250565b7f4552433732313a206f776e657220717565727920666f72206e6f6e657869737460008201527f656e7420746f6b656e0000000000000000000000000000000000000000000000602082015250565b7f45524337323155524953746f726167653a2055524920736574206f66206e6f6e60008201527f6578697374656e7420746f6b656e000000000000000000000000000000000000602082015250565b7f4552433732313a206d696e7420746f20746865207a65726f2061646472657373600082015250565b7f45524337323155524953746f726167653a2055524920717565727920666f722060008201527f6e6f6e6578697374656e7420746f6b656e000000000000000000000000000000602082015250565b7f4552433732313a20617070726f76656420717565727920666f72206e6f6e657860008201527f697374656e7420746f6b656e0000000000000000000000000000000000000000602082015250565b7f4552433732314d657461646174613a2055524920717565727920666f72206e6f60008201527f6e6578697374656e7420746f6b656e0000000000000000000000000000000000602082015250565b7f4552433732313a20617070726f76616c20746f2063757272656e74206f776e6560008201527f7200000000000000000000000000000000000000000000000000000000000000602082015250565b7f4552433732313a207472616e736665722063616c6c6572206973206e6f74206f60008201527f776e6572206e6f7220617070726f766564000000000000000000000000000000602082015250565b612e91816127aa565b8114612e9c57600080fd5b50565b612ea8816127bc565b8114612eb357600080fd5b50565b612ebf816127c8565b8114612eca57600080fd5b50565b612ed681612814565b8114612ee157600080fd5b5056fea264697066735822122085ba56ff397d27df4f599b52748e73543bba31ba208acbb30dd81faa9a4cfbb464736f6c63430008040033",
  "linkReferences": {},
  "deployedLinkReferences": {}
}